:1000000010C02AC029C028C051C026C025C024C0A5
:1000100023C022C021C020C01FC01EC01DC01CC0E4
:100020001BC011241FBECFE5D2E0DEBFCDBF10E064
:10003000A0E6B0E0E8E6F4E002C005900D92A63636
:10004000B107D9F720E0A6E6B0E001C01D92AD36B9
:10005000B207E1F7D8D106C2D3CF85B7877E8061DA
:1000600085BF85B7806285BF85B7806285BF88956B
:1000700085B78F7D85BF85B78F7D85BF08959C012E
:100080000A9714F029E030E0922F9770283031055C
:100090000CF09062906184B7877F84BF81B58861DE
:1000A00081BD91BD81B5806481BD08951F920F927D
:1000B0000FB60F9211240F900FBE0F901F9018953E
:1000C000D09AD19AD49AD69AD5980895882311F0C7
:1000D000D89A0895D8980895882311F0D99A089548
:1000E000D9980895882311F0DC9A0895DC98089532
:1000F000882311F0DE9A0895DE98089589B38072FE
:100100000895DEDF80E0E2DF81E0E6CF80916C00E1
:100110000895EF92FF920F931F93CF93E82E80E004
:10012000E1DF07E010E0C0E0F12CC701002E02C0C3
:10013000959587950A94E2F780FF02C081E001C09F
:1001400080E0D6DF81E0CEDFCC0FD8DF8111C16047
:1001500080E0C8DF0150110940F78C2FCF911F912B
:100160000F91FF90EF900895CF9380E0B5DF80E688
:10017000D0DF80E0CEDFC82F81E0AEDF8C2FCF91C3
:100180000895CF9380E0A8DF8FEFC3DFC82F81E011
:10019000A3DF8C2FCF910895F4DF982F907381E027
:1001A00009F080E00895EDDF85FD04C084FD04C002
:1001B0008FEF089580E0089581E00895EF92FF9217
:1001C0000F931F93CF93DF93EC018B017C01E40E1F
:1001D000F11CCE15DF0531F089919BDFF801819389
:1001E0008F01F7CFDF91CF911F910F91FF90EF908B
:1001F00008950F931F93CF93DF93EC018C01060FAB
:10020000111DC017D10719F0899183DFFACFDF9153
:10021000CF911F910F9108951F93CF93DF931F925A
:10022000CDB7DEB7182F80E0698356DF812F8F713D
:1002300080626FDF6981862F6CDF81E00F90DF9134
:10024000CF911F9149CFCF93DF93EC0180E044DF42
:1002500081E65FDF40916C00BE01CE01AFDF81E03F
:100260003BDF60E487E0DF91CF91D6CF80E034DFE1
:1002700082EE4FDF81E030DF60E787E0CDDF80E0B6
:1002800025DF6BE080E0C8DF81E020CF60936C0069
:10029000682F85E0C1DF60916C0081E1BDDF609176
:1002A0006C0082E1B9DF60E083E1B6DF60E084E109
:1002B000B3DF60E085E1B0DF60E086E1ADDF6FE4F1
:1002C00084E0AADFD3CF60E787E0A6DF6AE080E0C2
:1002D000A3CFCF93DF93EC0180E0F8DEF4DF80E082
:1002E000FBDE80EA16DF60916C00CE0182DF81E0E8
:1002F000F3DE81E0DF91CF91E9CE80E0E7DE68E0D8
:1003000080E08ACFEF92FF921F93CF93DF931F92EB
:10031000CDB7DEB7182F7B0180E04983DDDE812F6A
:100320008F71F7DE4981B701C70148DF81E00F9087
:10033000DF91CF911F91FF90EF90CECECF93DF93BF
:100340001F92CDB7DEB741E0BE016F5F7F4F87E1FF
:10035000D9DF898181700F90DF91CF91089511DFEE
:1003600086FD06C0EBDF91E0882319F090E001C024
:1003700091E0892F0895CF93DF931F92CDB7DEB719
:1003800041E0BE016F5F7F4F88E0BCDF89818F70E5
:100390000F90DF91CF910895FF920F931F93CF930A
:1003A000DF931F92CDB7DEB7F82E8B0180E0498333
:1003B00093DE8F2D8F718062ACDE4981642FC8017E
:1003C00018DF81E00F90DF91CF911F910F91FF9087
:1003D00083CECF93DF93EC0180E078DE45E0BE0171
:1003E0008BE0DADF81E0DF91CF9170CECF93DF93A6
:1003F000EC0145E0BC018AE0CFDF45E0BE0180E1D1
:10040000DF91CF91C9CF7DDE64E082E03FDF87B32B
:10041000836087BBCAEAD5E510926800C093690083
:10042000D0936A008091660091E0980F90936600E7
:1004300080936B0088E690E04CDFAEDE8111FDCF4B
:10044000C19A89EF90E00197F1F700C00000C198D0
:100450009FE32DE083E0915020408040E1F700C011
:080460000000DACFF894FFCF91
:06046800E7E7E7E7E7000B
:00000001FF
